:020000040040BA
:10000000502C4020490A4000470A4000470A40005F
:10001000470A4000470A4000470A4000000000002D
:10002000000000000000000000000000210E400061
:10003000470A400000000000C10E4000290F4000A8
:10004000470A4000470A4000470A4000470A40006C
:10005000470A4000470A4000470A4000470A40005C
:10006000470A400000000000390740004D074000EB
:1000700061074000470A4000470A4000470A400025
:100080007507400089074000470A4000470A4000C2
:10009000470A4000470A4000470A4000470A40001C
:1000A000470A4000470A4000470A4000470A40000C
:1000B000470A4000470A4000470A4000470A4000FC
:1000C000470A4000470A4000470A4000470A4000EC
:1000D00000000000470A400000000000470A4000FE
:1000E000470A4000470A4000470A4000470A4000CC
:1000F000470A4000470A4000470A4000470A4000BC
:10010000470A4000470A4000470A4000470A4000AB
:10011000470A40000000000000000000000000004E
:10012000470A4000470A4000470A4000470A40008B
:10013000470A400000000000470A4000470A40000C
:1001400010B5054C237833B9044B13B10448AFF311
:1001500000800123237010BDC00940200000000072
:100160004C6140000C4B43B10C480D4910B5AFF346
:1001700000800C48036823B910BD0A48036833B9EE
:100180007047094B002BF7D0BDE810401847064BCD
:10019000002BF5D0184700BF000000004C61400064
:1001A000C40940204C61400000000000034B1B6864
:1001B00043F480231943016000207047DC0940208C
:1001C00041B9094A136823F080731360026813432E
:1001D00003607047044A136843F080731360026839
:1001E00013430360704700BFDC094020036823EA23
:1001F0000101024B1B68194301607047DC09402074
:1002000010B51048104B98473E2100200F4B9847DF
:100210000F4CA0470028FCD00E4B98470E4A0F4BBE
:100220009A620F4CA0470028FCD002200D4B984743
:1002300000200D4B98470D4B98470248024B9847BA
:1002400010BD00BF00A3E1111D0C400039084000A3
:100250008D0840009D084000013F182000060E4018
:10026000AD0840009D074000D5074000110B40003D
:100270002DE9F04180B90C469046002A0FDD8F1819
:10028000084E094D306821462B6898470134BC421E
:10029000F8D14046BDE8F0814FF0FF38F9E78046DD
:1002A000F7E700BFD80B4020D00B402001380228D0
:1002B00015D82DE9F0410E4614469AB10D46DFF8E7
:1002C00038800C4FD8F8000015F8011B3B689847A0
:1002D00000280ADBA81B013CF4D1BDE8F0814FF0F7
:1002E000FF3070471046BDE8F0814FF0FF30BDE8A9
:1002F000F08100BFD40B4020D80B4020F8B54FF45C
:1003000000425C4B5A60BFF34F8FBFF36F8F5A4B65
:100310000022C3F850225A6942F400325A61BFF3F6
:100320004F8FBFF36F8FD3F88070C7F34E3607F04F
:1003300007000430C7F3C907B7FA87FE0EF01F0E97
:10034000BFF34F8F4FF0FF3404FA00FC06FA00F0C1
:1003500004FA0EF407FA0EFE1D463A46734640EACA
:100360000301C5F86012013A2344B2F1FF3FF6D110
:10037000013E6044B6F1FF3FEFD1BFF34F8F3E4BDC
:100380005A6942F480325A61BFF34F8FBFF36F8FC7
:100390003A4A3B495160A1F580715160BFF34F8FDC
:1003A000BFF36F8FD3F8902222F00102C3F890229E
:1003B000D3F8942222F00102C3F89422BFF34F8FA6
:1003C000BFF36F8F0A202F4CA0470B20A0470C20B3
:1003D000A0471020A0471120A0472B4B4FF480725C
:1003E0001A61C3F8A0201A63A3F580634FF400627A
:1003F0005A61C3F8A0205A66C3F890205A651A6261
:10040000C3F88420196F21F400611967596F21F432
:1004100000615967C3F8C020C3F8D420C3F8B020E6
:100420004FF400121A66C3F890205A655A62C3F856
:100430008020196F21F400111967596F21F4001100
:1004400059675A60114AD2F8143143F01003C2F8C8
:1004500014310F4B10221A66C3F890205A655A6265
:10046000C3F88020196F11431967596F11435967F9
:100470005A60F8BD50180E4000ED00E0000C0E4030
:100480000C08005ABD08400000120E4000800840D1
:1004900000100E40016370474163704721F0006116
:1004A000B1F1405F05D1836B134214BF01200020DE
:1004B0007047C36BF8E74264B1F1C05F3AD013D81C
:1004C000B1F1006F25D0B1F1805F0AD1036F134302
:1004D0000367436F416F0B4023EA020343674260A7
:1004E00070470029FBD17047B1F1205F21D009D8B6
:1004F000B1F1005FF3D1036F13430367436F1343FD
:100500004367ECE7B1F1405F13D0B1F1605F10D009
:10051000E5E710B4016F046FD34321401C46194036
:100520000167436F416F0B402340436742605DF8B2
:10053000044B7047036F016F0B4023EA020303670C
:10054000436F13434367CAE7416412F0010F0DD1B3
:10055000016612F00A0F0BD0016212F0020F09D1EE
:1005600012F0080F08D0C0F8841005E04166F0E7EB
:100570004162F2E7C0F8801041610160704710B439
:10058000019C41644CB901664BB101654AB94163B4
:10059000016101605DF8044B70474166F4E7416515
:1005A000F4E70163F4E7000070B582B00546164633
:1005B0001C46B1F1005F14D00AD9B1F1405F24D0DC
:1005C000B1F1605F21D0B1F1205F17D000201AE0B7
:1005D000B1F1805F05D0B1F1C05F02D0B1F1006F21
:1005E000F4D132462846114B984714F0010F02D13E
:1005F0002E66012007E06E66012004E01A463146AF
:100600000B4B9847012002B070BD04F0010300932A
:10061000C4F38003B1F1605F14BF002201223146B0
:100620002846044CA0470120EDE700BFB704400076
:10063000490540007F05400012F0100F12D0C0F8AD
:10064000B01012F0200F07D0C0F8D41012F0400FF5
:1006500005D0C0F8C0107047C0F8D010F6E7C0F859
:10066000C4107047C0F8B410704701647047C06C84
:100670007047806C704700002DE9F04104468846C1
:100680000E4B9847054620460D4B9847054013D022
:100690000C4C04F1600603E0B4420DD010345DB19F
:1006A00020684045F8D161682942F5D0E368984751
:1006B000636825EA0305EFE7BDE8F0816F064000B7
:1006C00073064000E0094020F8B5184C2668062E55
:1006D0002AD84FF0000C6446154F04E00134E4B210
:1006E000A446A64209D3A64625017D598D42F5D1DF
:1006F00007EB04156D689542F0D10D4D4FEA0E1EC3
:1007000005EB0E0445F80E106260A3600699E160E7
:100710000136664505D011461A46064B984700201B
:10072000F8BD02490E60F6E70120F8BD500A4020EE
:10073000E00940203906400008B50A210148024B73
:10074000984708BD000E0E407906400008B50B2101
:100750000148024B984708BD00100E407906400042
:1007600008B50C210148024B984708BD00120E4005
:100770007906400008B510210148024B984708BD92
:1007800000140E407906400008B511210148024BC3
:10079000984708BD00160E4079064000032811D086
:1007A000042812D002280CBF4FF480710021084A9F
:1007B000136B23F440730B431363936E13F0080F12
:1007C000FBD070474FF44071F1E74FF40071EEE752
:1007D00000060E40174A136B23F070031843106392
:1007E000936E13F0080F0AD14FF4805311498A6EAB
:1007F00012F0080F03D1013BF9D1012070470D4AD7
:10080000136B23F0030343F002031363936E13F09F
:10081000080F0AD14FF4805306498A6E12F0080F70
:1008200005D1013BF9D1012070470020704700201D
:10083000704700BF00060E40A0B90E48036A0902C7
:1008400089B20D4A1A400D4B134319430162024607
:10085000936E13F0010FFBD0064A116A084B0B434D
:100860001362704703490B6A064A1A40064B13434A
:100870000B62704700060E40FCFFC8FF0100370006
:1008800000003701FCFFC8FE02003701024B986EE2
:1008900000F48030704700BF00060E404FF0005259
:1008A000014B9A62704700BF00060E40024B986EE3
:1008B00000F00200704700BF00060E403F281ED81F
:1008C0001F280CD8114B9A6901238340934318D0F9
:1008D000012303FA00F00D4B186100207047203807
:1008E0000A4BD3F808210123834093430BD0012303
:1008F00003FA00F0054BC3F8000100207047012007
:100900007047002070470020704700BF00060E406F
:10091000436913F0020F02D0C1610020704701202B
:100920007047436913F0010F03D083690B700020F7
:1009300070470120704710B40B01934214D9C900CD
:100940004B0803EBC202B2FBF1F2D3085C1E4FF678
:10095000FE718C4201D9012017E0416841F4002169
:1009600041600CE0012010E0590801EBC202B2FB2B
:10097000F3F2D3085C1E4FF6FE718C42F2D81204DB
:1009800002F4E0221A43026200205DF8044B704733
:10099000084BC0F8E430002343604362836288233D
:1009A0000360242303604FF4807303604FF400233B
:1009B000036070470041535570B505460C46164616
:1009C0000F4B984700220F4B1A60A4B132462168A2
:1009D00028460D4B9847024678B96368A1680B43D7
:1009E00021690B43E1680B4306490B6069680B43BF
:1009F0006B60104670BD0122FBE70122F9E700BFE2
:100A000091094000540A4020370940004023036008
:100A10007047102303607047436913F0020F04D03E
:100A2000C1F30801C161002070470120704743698C
:100A300013F0010F05D08369C3F308030B60002096
:100A4000704701207047FEE700B583B0254B264A6A
:100A50009A4210D0254B234A9A420CD2013B9B1A52
:100A600023F00303043313441F4951F8040B42F8E5
:100A7000040B9A42F9D11E4B1E4A9A420AD2013BFC
:100A80009B1A23F0030304331344002142F8041B90
:100A90009342FBD1184A194B23F07F039360EFF385
:100AA0001083B3FA83F35B09019372B6BFF35F8FD0
:100AB0000022134B1A700199124A136843F4700311
:100AC0001360BFF34F8FBFF36F8F29B101220C4B1F
:100AD0001A70BFF35F8F62B60B4B98470B4B98476A
:100AE000FEE700BF000040204C614000C0094020EC
:100AF000500C4020C009402000ED00E00000400004
:100B00000A00402088ED00E0552F4000D92D40001C
:100B10003B4B1B6B03F00303012B1DD083B1022B56
:100B200036D0374B1B6B03F07003702B5FD0344B08
:100B30001A6B3449C2F302120B68D3400B60704742
:100B4000314B5B6913F0800F14BF4FF400424FF438
:100B5000FA422C4B1A60E4E7294B1B6A13F0807FA2
:100B600003D02A4A274B1A60DBE7294A254B1A6033
:100B7000234B1B6A03F07003102B05D0202BD0D120
:100B8000224A204B1A60CCE7224A1E4B1A60C8E763
:100B90001B4B1B6A13F0807F16D01C4A194B1A603E
:100BA000174B1B6B03F00303022BBAD1144A916A53
:100BB000926A1448C1F30A41036801FB0333D2B2BD
:100BC000B3FBF2F30360ACE7114A0E4B1A600C4B17
:100BD0001B6A03F07003102B05D0202BE0D10B4AC9
:100BE000084B1A60DCE70B4A064B1A60D8E7054A47
:100BF00013680949A1FB03135B081360704700BF2A
:100C000000060E400C00402010180E40001BB700DC
:100C100000093D0000127A00ABAAAAAA164B98421E
:100C200013D9164B984215D9154B984216D9154B26
:100C3000984217D9144B984218D9144B984294BF34
:100C4000134A144A144B1A6070474FF08062124BDB
:100C50001A607047114A104B1A607047104A0E4BC9
:100C60001A6070470F4A0C4B1A6070474FF004220D
:100C7000094B1A60704700BFBFF35E017FE7BD02FA
:100C80003FDB1C04FFCE7B05BFC2DA067FB6390806
:100C90000005000400060004000C0E4000010004E2
:100CA00000020004000300040A4B1B6853B1094B07
:100CB0001B681A180849914208DB1046054A106063
:100CC00018467047054A034B1A60F0E74FF0FF30B3
:100CD000704700BF580A4020FCFF4520502E40209E
:100CE0004FF0FF3070474FF400534B6000207047C7
:100CF000012070470020704700F1080343604FF067
:100D0000FF328260C36003610023036070470023E9
:100D10000361704743684B609A688A609A685160C3
:100D200099600861036801330360704730B40D684F
:100D3000B5F1FF3F02D000F1080202E0026904E0D1
:100D40001A4653681C68A542FAD253684B609960F2
:100D50008A605160086103680133036030BC7047EA
:100D600003694268816891608268416851605A688D
:100D7000904205D00022026118680138186070475F
:100D800082685A60F6E700000D4B1B68B3F1FF3F25
:100D90000AD04FF0800372B683F31188BFF36F8FD0
:100DA000BFF34F8F62B6FEE74FF0800372B683F356
:100DB0001188BFF36F8FBFF34F8F62B6FEE700BF9E
:100DC0001000402006480068006880F3088862B67A
:100DD00061B6BFF34F8FBFF36F8F00DF00BF00001E
:100DE00008ED00E0DFF80C00016841F470010160DB
:100DF0007047000088ED00E04FF0807340F8043C3D
:100E000040F8081C054B40F80C3C40F8202C6FF0D3
:100E1000020340F8243C4438704700BF890D40006D
:100E2000064B19680868B0E8F04F80F30988BFF3F3
:100E30006F8F4FF0000080F311887047640A4020E4
:100E4000704700BF4FF0800372B683F31188BFF381
:100E50006F8FBFF34F8F62B60B4A13680133136075
:100E6000012B0FD1094B1B6813F0FF0F0AD04FF075
:100E7000800372B683F31188BFF36F8FBFF34F8F78
:100E800062B6FEE7704700BF1000402004ED00E0AE
:100E90000A4B1B6853B94FF0800372B683F3118875
:100EA000BFF36F8FBFF34F8F62B6FEE7013B034A7C
:100EB00013600BB983F31188704700BF1000402006
:100EC000EFF30980BFF36F8F154B1A681EF0100FF8
:100ED00008BF20ED108A20E9F04F10604DF8043D66
:100EE0004FF0800072B680F31188BFF34F8FBFF3CD
:100EF0006F8F62B601F000F94FF0000080F31188A7
:100F000008BC19680868B0E8F04F1EF0100F08BF61
:100F1000B0EC108A80F30988BFF36F8F704700BF71
:100F2000640A4020704700BF08B5EFF311834FF00B
:100F3000800272B682F31188BFF36F8FBFF34F8FB9
:100F400062B6054B984718B14FF08052034B1A60B8
:100F5000002383F3118808BD651D400004ED00E007
:100F6000034A044B1A600722043B1A60704700BF13
:100F7000BF27090014E000E000B583B0254B1A78C4
:100F8000D2B20192FF221A701B78DBB28DF80330C7
:100F90009DF8033003F080031F4A137007221F4B94
:100FA0001A609DF8033013F0800F10D0062200E085
:100FB0000A469DF803305B00DBB28DF803309DF8E4
:100FC0000330511E13F0800FF2D1144B1A60134AF4
:100FD00013681B0203F4E0631360019BDBB20D4A4C
:100FE00013700F4B1A6842F460021A601A6842F0DC
:100FF00060421A600B4B984700220B4B1A600B4B58
:1010000098470B4A136843F040431360094B9847D5
:10101000094B984700E400E05C0A4020600A402049
:1010200020ED00E0610F400010004020E50D400081
:1010300034EF00E0C50D4000890D4000EFF305835B
:101040000F2B11D9124A9B5CDBB2124A12789A42DA
:101050000AD94FF0800372B683F31188BFF36F8F04
:10106000BFF34F8F62B6FEE70B4B1B6803F4E063E0
:101070000A4A126893420AD94FF0800372B683F38A
:101080001188BFF36F8FBFF34F8F62B6FEE77047D3
:10109000F0E300E05C0A40200CED00E0600A402034
:1010A00010B50446064B98472046064B9847044621
:1010B000054B98470CB1204610BD044B9847FAE702
:1010C000491D4000CD2F4000B11E4000C32D4000FF
:1010D00048B110B50446044B98472046034B984747
:1010E000034B984710BD7047491D4000DD2F40005D
:1010F000B11E400038B504461546026C5AB9036863
:10110000002B2ED140681B4B984700236360A36BD4
:101110000133A36338BD6DB98068174B9847A36846
:10112000226C1344A360626893421CD32368A360BB
:101130000020ECE7C068104B9847236C5B42E268E4
:101140001A44E26021688A4202D262681344E36072
:10115000022D0AD1A36B53B1A36B013BA363002003
:10116000D5E70020D3E70020D1E70020CFE700201B
:10117000CDE700BFF92440004D35400030B583B0C5
:101180000190446D74B1A26BE36B9A4215D34FF09A
:10119000800372B683F31188BFF36F8FBFF34F8F55
:1011A00062B6FEE74FF0800372B683F31188BFF397
:1011B0006F8FBFF34F8F62B6FEE7A26B934203D8E7
:1011C0000025284603B030BD0A4601A920460B4B36
:1011D00098470546A36CB3F1FF3F0AD1636A002B21
:1011E000EFD004F12400064B9847002818BF0125D2
:1011F000E7E7A36C0133A364E3E700BFF510400009
:10120000CD224000026C72B110B50346C46814448C
:10121000C4604068844201D31868D8600846D96821
:10122000014B984710BD70474D354000F8B5044656
:10123000224B9847A36C002B1BDD214D214F224EE2
:101240000BE0636AABB104F12400B04778B9A36C3A
:10125000013BA364A36C002B0BDD636D002BF0D06E
:1012600000212046A8470128F1D1B847EFE7B84749
:10127000EDE74FF0FF33A364144B98470F4B9847AB
:10128000636C002B14DD236993B104F110060E4D3D
:101290000C4F07E0636C013B6364636C002B07DD5C
:1012A00023692BB13046A8470028F3D0B847F1E7AF
:1012B0004FF0FF336364054B9847F8BD450E40007F
:1012C0007D11400029244000CD224000910E4000B5
:1012D00038B508B304460D461D4B98472268216C6B
:1012E000E36B03FB01F3D01860600020A063A260F1
:1012F0005B1A1344E3604FF0FF336364A364FDB9EA
:1013000023692BB104F11000124B984701280ED02D
:10131000114B9847012038BD4FF0800372B683F31C
:101320001188BFF36F8FBFF34F8F62B6FEE74FF0A8
:1013300080520A4B1A60BFF34F8FBFF36F8FE7E7FE
:1013400004F11000064DA84704F12400A847DFE788
:10135000450E4000CD224000910E400004ED00E01B
:10136000F90C4000F8B550B94FF0800372B683F322
:101370001188BFF36F8FBFF34F8F62B6FEE706464B
:1013800017460D4689B101FB00F05930124B9847C2
:101390000446E8B94FF0800372B683F31188BFF3B7
:1013A0006F8FBFF34F8F62B6FEE758200A4B984706
:1013B00004460028EED02060E66325640121204623
:1013C000064B984784F85070002363652046F8BDAB
:1013D00000F158030360EFE7A1104000D112400074
:1013E0002DE9F04F85B00192B8B1044601B3022B4C
:1013F0002CD01D468846664B9847002834D1019B67
:10140000002B38D04FF0800372B683F31188BFF3FE
:101410006F8FBFF34F8F62B6FEE74FF0800372B657
:1014200083F31188BFF36F8FBFF34F8F62B6FEE770
:10143000026C002ADBD04FF0800372B683F3118870
:10144000BFF36F8FBFF34F8F62B6FEE7E26B012AE7
:10145000CFD04FF0800372B683F31188BFF36F8F44
:10146000BFF34F8F62B6FEE700274A4EDFF850A168
:10147000DFF82C9142E00027F7E72A464146204654
:10148000454B9847636D9BB129462046434B98478F
:10149000012807D14FF08052414B1A60BFF34F8FA4
:1014A000BFF36F8F3F4B9847012005B0BDE8F08F29
:1014B000636A73B104F124003B4B98470128F1D1D2
:1014C0004FF08052364B1A60BFF34F8FBFF36F8FD0
:1014D000E8E70028E6D04FF08052314B1A60BFF3A6
:1014E0004F8FBFF36F8FDDE72E4B98470020DCE76F
:1014F00020462E4B98472E4B98470127B047A26BAA
:10150000E36B9A42B9D3022DB7D0019B002BEBD0ED
:101510000FB902A8D047234B9847264B9847B047AE
:10152000636CB3F1FF3F01D100236364A36CB3F19B
:10153000FF3F01D10023A3641A4B984701A902A8D9
:101540001D4B9847E0B9B047D4F838B0E76B154B5E
:101550009847BB45CCD1019904F11000174B98472F
:101560002046124B9847124B98470028C5D14FF0A0
:101570008053C9F80030BFF34F8FBFF36F8FBCE7C4
:1015800020460A4B98470A4B984700208DE700BF3A
:1015900035244000450E4000F51040007D1140000C
:1015A00004ED00E0910E4000CD2240002D124000DD
:1015B000B11E4000491D400095234000C921400054
:1015C00065234000002836D02DE9F041044600296B
:1015D0003CD0022B48D01E4615468846354B9847CE
:1015E000EFF311874FF0800372B683F31188BFF3D6
:1015F0006F8FBFF34F8F62B6A26BE36B9A4201D33A
:10160000022E4FD13246414620462B4B9847A36CC1
:10161000B3F1FF3F41D1636D002B33D031462046FB
:10162000264B9847002D3FD001283DD1286087F3F5
:101630001188BDE8F0814FF0800372B683F3118802
:10164000BFF36F8FBFF34F8F62B6FEE7006C0028C9
:10165000BFD04FF0800372B683F31188BFF36F8F52
:10166000BFF34F8F62B6FEE7E06B0128B3D04FF0B7
:10167000800372B683F31188BFF36F8FBFF34F8F70
:1016800062B6FEE7636A8BB104F124000C4B984705
:1016900075B168B101202860C9E7A36C0133A36468
:1016A0000120C4E70020C2E70120C0E70120BEE717
:1016B0000120BCE73D104000F51040007D114000C6
:1016C000CD22400070B170B50446036CABB14FF051
:1016D000800372B683F31188BFF36F8FBFF34F8F10
:1016E00062B6FEE74FF0800372B683F31188BFF352
:1016F0006F8FBFF34F8F62B6FEE7036833B30D46BB
:10170000254B9847EFF311864FF0800372B683F3B1
:101710001188BFF36F8FBFF34F8F62B6A26BE36B7D
:101720009A4231D2A36B0133A363A36CB3F1FF3FA1
:1017300025D1636DC3B100212046184B98472DB3C6
:10174000012823D1286086F3118870BD4368002BDF
:10175000D5D04FF0800372B683F31188BFF36F8F3B
:10176000BFF34F8F62B6FEE7636A8BB104F12400CA
:101770000B4B984775B168B101202860E3E7A36C73
:101780000133A3640120DEE70020DCE70120DAE773
:101790000120D8E70120D6E73D1040007D11400030
:1017A000CD2240002DE9F04784B0019298B1044663
:1017B000E1B198460F46614B984728BB019B53B354
:1017C0004FF0800372B683F31188BFF36F8FBFF3BE
:1017D0004F8F62B6FEE74FF0800372B683F3118835
:1017E000BFF36F8FBFF34F8F62B6FEE7026C002A24
:1017F000DFD04FF0800372B683F31188BFF36F8F91
:10180000BFF34F8F62B6FEE700264D4DDFF860A1B3
:10181000DFF83C914BE00026F7E7E56839462046C3
:10182000484B9847B8F1000F1DD1A36B013BA36350
:10183000236813B9444B9847606023696BB104F186
:101840001000424B9847012807D14FF08052404B7F
:101850001A60BFF34F8FBFF36F8F3E4B9847012045
:1018600004B0BDE8F087E560636A002BF5D004F1B1
:101870002400364B98470028EFD04FF08052344B6D
:101880001A60BFF34F8FBFF36F8FE6E7314B984776
:101890000020E5E7A84760682F4B98472D4B9847F5
:1018A00030E020462D4B98472D4B98470126A847FE
:1018B000A36B002BB1D1019B002BE7D00EB902A87E
:1018C000D047244B9847274B9847A847636CB3F100
:1018D000FF3F01D100236364A36CB3F1FF3F01D14B
:1018E0000023A3641B4B984701A902A81E4B9847ED
:1018F000E8B9A847A66B174B9847002ED1D12368AB
:10190000002BC7D0019904F12400184B98472046BA
:10191000124B9847124B98470028C7D14FF080537D
:10192000C9F80030BFF34F8FBFF36F8FBEE720467B
:101930000A4B98470A4B9847002091E7352440000E
:10194000450E400005124000B5254000CD22400064
:1019500004ED00E0910E4000552440002D1240009F
:10196000B11E4000491D400095234000C9214000A0
:101970006523400010B40B4B1B6853B10123094C85
:1019800054F8332032B10133082BF9D15DF8044B00
:1019900070470023034A42F8331002EBC303586038
:1019A000F4E700BFDC0B402070B504460D46164638
:1019B0000F4B9847636CB3F1FF3F0BD0A36CB3F1AF
:1019C000FF3F0AD00B4B9847A36B4BB120460A4B05
:1019D000984770BD00236364F0E70023A364F1E738
:1019E0003246294604F12400044B9847EEE700BF35
:1019F000450E4000910E40002D1240004D22400047
:101A0000084B1B681B683BB1064B1B68DB68DB6837
:101A10005A68054B1A6070474FF0FF32024B1A604C
:101A2000704700BF680A4020140B402010B50F4BD0
:101A30001B6858600E4B1B6898420ED304460D4B32
:101A400018680A4B196804310B4B98470B4B1B68FD
:101A50009C4201D2094B1C6010BD094B1868034B16
:101A600019680431044B984710BD00BF640A402038
:101A70005C0B4020680A40202D0D4000140B4020D4
:101A80006C0A40202DE9F04F83B00C9DDDF834A0A6
:101A90000E9E60B1042D15D94FF0800372B683F30A
:101AA0001188BFF36F8FBFF34F8F62B6FEE74FF021
:101AB000800372B683F31188BFF36F8FBFF34F8F2C
:101AC00062B6FEE70190984691460F4636B99000FF
:101AD000624B98470646002800F09E8058205F4BD6
:101AE00098470446002800F0948006634FEA890274
:101AF000A52130465A4B98476FF040464E44236B21
:101B000003EB860323F007063B7884F834303B78F8
:101B1000002B40F08480002784F83D70E562A564C6
:101B2000E76404F104094846DFF884B1D84704F1BA
:101B30001800D8472461C5F10503A36164622765D5
:101B400084F85470424601993046464B98472060CD
:101B5000BAF1000F01D0CAF80040434B9847434AFE
:101B6000136801331360424B1B68002B66D1404B56
:101B70001C601368012B21D13E4F38463E4EB047C2
:101B800007F11400B04707F12800B04707F13C0007
:101B9000B04707F15000B047DFF818814046B04722
:101BA000364F3846B0473648B0473648B0473648D3
:101BB000B047364BC3F80080354B1F60354A136879
:101BC000013313602364E06A334A116801238340C0
:101BD0000B43136000EB80004946264B03EB80006B
:101BE0002E4B98472E4B98472E4B1B68002B31D01D
:101BF0001F4B1B68DB6A9D422ED94FF080522A4B47
:101C00001A60BFF34F8FBFF36F8F012003B0BDE8A1
:101C1000F08F3046254B98474FF0FF30F6E73B46B4
:101C200004F134020937597802F8011F13F8011F33
:101C300000293FF470AFBB42F5D16CE7194B1B682C
:101C4000002BBBD10A4B1B68DB6A9D42B6D3084B05
:101C50001C60B3E70120D9E70120D7E7A1104000BD
:101C600081364000F90D4000450E4000D40A402066
:101C7000640A4020700A4020F90C4000000B40200C
:101C80001C0B4020480B4020340B4020680A4020A9
:101C90006C0A4020E00A4020E80A4020150D400070
:101CA000910E4000300B402004ED00E0D1104000C8
:101CB0000F0D4000EC0A402010B584B000230393C0
:101CC0000293019300934FF4006217491748184C90
:101CD000A04701280BD020BB4FF0800372B683F3DE
:101CE0001188BFF36F8FBFF34F8F62B6FEE7114BC2
:101CF00098470128EFD14FF0800372B683F3118823
:101D0000BFF36F8FBFF34F8F62B64FF0FF320A4BB6
:101D10001A600122094B1A600022094B1A60094B14
:101D2000984704B010BD00BFD85E4000612040005D
:101D3000851A4000A1264000140B4020300B4020A3
:101D40005C0B4020790F4000024A13680133136096
:101D5000704700BFDC0A4020014B1868704700BF85
:101D60005C0B40202DE9F047424B1B68002B78D1DB
:101D7000414B1A6801321A601E68D6B93F4B1B6886
:101D80001B6853B14FF0800372B683F31188BFF321
:101D90006F8FBFF34F8F62B6FEE7384A1168384B3A
:101DA000186810601960374A136801331360364BA6
:101DB0009847364B1B689E4218D20024344B1B6850
:101DC000DB6A03EB8303334A52F82330022B28BF2C
:101DD0000124314B1B680BB9304B9847304B1B68C3
:101DE000002B0CBF20460120BDE8F0870024DFF85F
:101DF0008C90DFF8B8802B4F1FE04FF0FF32234B61
:101E00001A60DBE7214A1360D8E705F11800C047E4
:101E1000E86A3A680123834013433B6000EB80008B
:101E200051461C4B03EB80001F4B9847184B1B6817
:101E3000EA6ADB6A9A4228BF0124D9F800301B689D
:101E4000002BDAD0D9F80030DB68DD686B689E4281
:101E5000D8D305F1040A5046C047AB6A002BD4D151
:101E6000D6E70D4A1368013313600C4B98470024E2
:101E7000B4E700BFDC0A40205C0B4020680A402029
:101E80006C0A4020180B4020011A4000140B40201F
:101E9000640A4020700A4020D80A4020C12D40002A
:101EA000600B4020E80A4020150D4000610D400005
:101EB0002DE9F843384B1B6853B94FF0800372B6D5
:101EC00083F31188BFF36F8FBFF34F8F62B6FEE7C6
:101ED000324B9847304B1A68013A1A601B68002B46
:101EE00055D12F4B1B68002B32D100242D4B984726
:101EF0002046BDE8F883FB68DC6804F11800B047B1
:101F000004F104084046B047E06A2A680123834090
:101F100013432B6000EB8000414609EB8000224B0D
:101F20009847224B1B68E26ADB6A9A420CD23B68F4
:101F3000002BE0D11E4B1B68DBB11D4B1B68C3B1EE
:101F40001C4E1D4D1A4C0EE001221B4B1A60EEE791
:101F50001A4F1B4E1B4DDFF87490E8E72368013BD6
:101F6000236023682BB1B0470028F7D001232B60F2
:101F7000F4E7114B1B68012B0BD14FF08052124B31
:101F80001A60BFF34F8FBFF36F8F0124AEE70024B9
:101F9000ACE70024AAE700BFDC0A4020450E400061
:101FA000D40A4020910E4000150D4000640A4020E4
:101FB000D80A4020651D4000600B40201C0B4020CB
:101FC000610D4000E80A402004ED00E0700A402066
:101FD00010B5002829D00446184B1B6853B14FF0A8
:101FE000800372B683F31188BFF36F8FBFF34F8FF7
:101FF00062B6FEE7124B9847124B1B681C44124B0B
:1020000018680430114B984748B90F4B1A681049AB
:102010000B68D06A0122824023EA02030B6020464B
:102020000C4B98470C4B984738B94FF080520B4BEC
:102030001A60BFF34F8FBFF36F8F10BDDC0A4020D3
:10204000491D40005C0B4020640A4020610D4000A7
:10205000E80A40202D1A4000B11E400004ED00E0C7
:1020600080B5DFF88880194EDFF884902AE0184B9D
:102070001B68012B1ED82B68002BF8D0C047346892
:10208000B847002CF7D0134B9847F368DC68201D45
:10209000114B9847114A1368013B13602B68013BB1
:1020A0002B600F4B9847206BDFF848A0D0472046A5
:1020B000D047E0E74FF08053C9F80030BFF34F8FAF
:1020C000BFF36F8F074D084FD5E700BF480B402087
:1020D000700A4020450E4000610D4000D40A4020A7
:1020E000910E4000E40A4020B11E4000491D40000E
:1020F00004ED00E0D11040002D4B1B68002B2CD1CB
:1021000010B500222B4B1A602B4B1B681B6B1A68F7
:10211000B2F1A53F03D15A68B2F1A53F21D0264BB9
:10212000186819683431254B9847254B1B68B3FA5A
:1021300083F3DBB2C3F11F0303EB8301214A52F89F
:102140002120BAB94FF0800372B683F31188BFF330
:102150006F8FBFF34F8F62B6FEE70122154B1A60F7
:1021600070479A68B2F1A53FD9D1DB68B3F1A53FBA
:10217000D5D1DAE7134A9900C81802EB8000446809
:1021800064684460194402460832944209D003EB63
:1021900083030C4A02EB83035B68DA68064B1A6020
:1021A00010BD6068074A02EB81025060EFE700BF94
:1021B000DC0A4020600B4020640A4020A92D40002A
:1021C000E80A4020700A402038B5E0B10C46174DAF
:1021D00029681831164B984728680430154B9847E2
:1021E00040B92A6814490B68D06A0122824023EA68
:1021F00002030B60B4F1FF3F10D0104B186820446D
:102200000F4B984738BD4FF0800372B683F31188A7
:10221000BFF36F8FBFF34F8F62B6FEE7034B1968B2
:1022200004310848084B984738BD00BF640A402075
:102230002D0D4000610D4000E80A40205C0B40205D
:102240002D1A4000340B4020150D4000E8B170B548
:1022500015460C46164E31681831164B98473068B3
:102260000430154B984740B9326814490B68D06A5E
:102270000122824023EA02030B60012D10D0104B93
:10228000186820440F4B984770BD4FF0800372B61A
:1022900083F31188BFF36F8FBFF34F8F62B6FEE7F2
:1022A000034B196804310848024B984770BD00BFC2
:1022B000640A4020150D4000610D4000E80A4020EE
:1022C0005C0B40202D1A4000340B402038B5C36809
:1022D000DC6824B304F1180528461A4B98471A4BBA
:1022E0001B683BBB251D2846164B9847E06A174ADA
:1022F0001168012383400B43136000EB80002946E3
:10230000134B03EB8000134B9847134B1B68E26A97
:10231000DB6A9A4213D90120104B186038BD4FF088
:10232000800372B683F31188BFF36F8FBFF34F8FB3
:1023300062B6FEE729460A48064B9847E5E70020C3
:1023400038BD00BF610D4000DC0A4020E80A402093
:10235000700A4020150D4000640A4020600B4020A8
:102360001C0B402030B1094A12680260084A12680A
:10237000426070474FF0800372B683F31188BFF359
:102380006F8FBFF34F8F62B6FEE700BF180B402080
:102390005C0B402038B5C0B1044609B30D461D4B57
:1023A00098471D4B1A682B68B3F1FF3F2ED01B498D
:1023B00009682068884202D061688A4228D2616830
:1023C000501A834217D801241CE04FF0800372B6E4
:1023D00083F31188BFF36F8FBFF34F8F62B6FEE7B1
:1023E0004FF0800372B683F31188BFF36F8FBFF392
:1023F0004F8F62B6FEE79B1A0B442B602046084BBA
:1024000098470024074B9847204638BD0024F9E739
:102410000124F7E7450E40005C0B4020180B4020DC
:1024200065234000910E40000122014B1A60704765
:10243000600B4020054B1B6833B1054B1B68002B1C
:102440000CBF02200020704701207047300B402055
:10245000DC0A4020002844D038B50446C26A21492D
:102460000968C96A8A4214D28169002905DB1D49BD
:102470000968C96AC1F10501816102EB82021A494A
:1024800001EB82026169914204D0164A1268D26A55
:10249000E26238BD251D2846144B984770B9E36A9F
:1024A00003EB8301104A52F821203AB91048026820
:1024B000012101FA03F322EA03030360094B1B68BD
:1024C000D86AE0620A4A1168012383400B43136013
:1024D00000EB80002946044B03EB8000054B984736
:1024E00038BD7047640A4020700A4020610D4000EA
:1024F000E80A4020150D400000284DD038B50446AC
:10250000274A126890420AD04FF0800372B683F3D4
:102510001188BFF36F8FBFF34F8F62B6FEE7C26CB7
:1025200052B94FF0800372B683F31188BFF36F8FF7
:10253000BFF34F8F62B6FEE7013AC264C06AA16C76
:1025400088422BD052BB251D2846164B984768B9A8
:10255000E16A01EB8102144B53F8223033B913487E
:10256000036801228A4023EA02030360A06CE06250
:10257000C0F10503A3610D4A1168012404FA00F3B8
:102580000B43136000EB80002946074B03EB8000F0
:10259000074B9847204638BD00207047002038BDC3
:1025A000640A4020610D4000700A4020E80A402083
:1025B000150D4000054B1B6823B1044B1A68D36C02
:1025C0000133D364014B1868704700BF640A402090
:1025D00008B54160006191420CD8D21A83699A42D1
:1025E00001D3012008BD011D094B1868094B98470C
:1025F000002008BD9A4203D2994201D3012008BDB0
:10260000011D054B1868034B9847002008BD00BF0B
:10261000680B40202D0D4000640B402070B5154B19
:102620009847154B1B6813B1144B984770BD144D58
:102630002846144EB047144C2046B047134B1D603B
:10264000134B1C60002210210520124B98470A4BA7
:10265000186018B11049114B9847E5E74FF0800317
:1026600072B683F31188BFF36F8FBFF34F8F62B6DB
:10267000FEE700BF450E4000980B4020910E400041
:102680006C0B4020F90C4000800B4020640B402074
:10269000680B402065134000E05E40007519400063
:1026A00010B584B00F4B98470F4B1B6873B10023D4
:1026B000039302930193042200924FF480520B493A
:1026C0000B480C4CA04708B104B010BD4FF080037C
:1026D00072B683F31188BFF36F8FBFF34F8F62B66B
:1026E000FEE700BF1D264000980B4020E85E40003A
:1026F00021284000851A4000D8B130B585B0154674
:102700000446154A106820B31A46009101950294B8
:10271000052919DC114B984702284FF000030CBF24
:10272000089A1A4669460C4800680D4CA04705B047
:1027300030BD4FF0800372B683F31188BFF36F8F03
:10274000BFF34F8F62B6FEE700236946054CA047F2
:10275000EDE70020EBE700BF980B40203524400058
:10276000E1134000C51540002DE9F04782B08046D6
:10277000244B98470746244B1B6898421BD30023E1
:10278000C8F80030204B1F60384602B0BDE8F08723
:10279000002100910B46524620461C4CA04760B9D0
:1027A0004FF0800372B683F31188BFF36F8FBFF3CE
:1027B0004F8F62B6FEE7164D164E2B681A68C2B1EF
:1027C000DB68D3F800A0DC6804F104094846B04790
:1027D000636A20469847E369012BEED1A36953440D
:1027E0009A45D5D263602461494628680A4B9847C8
:1027F000E3E70A4A10680649086013600123C8F835
:102800000030BFE7591D4000940B4020F9264000DE
:10281000640B4020610D40002D0D4000680B4020EE
:102820002DE9F04788B0754E754FDFF8FC91DFF861
:10283000FC8133681A68002A00F0CE80DB681C68CF
:10284000B84704A86F4B98470546049B002B44D11A
:10285000A04212D20022611B6B4B18686B4B984749
:102860006B4B984700283AD14FF08053C9F800309D
:10287000BFF34F8FBFF36F8F31E0654B98473368DD
:10288000DB68D3F80CA00AF10400C047DAF81C306A
:10289000012B04D0DAF82430504698471FE0DAF8CC
:1028A000181023462A46214450465A4DA84701286D
:1028B000F0D1002100910B4622465046564CA047CD
:1028C0000028E7D14FF0800372B683F31188BFF37D
:1028D0006F8FBFF34F8F62B6FEE74D4B98474A4D5F
:1028E0004E4C06E007990698059B9847049B002BE1
:1028F00009DA00231A4604A92868A047002898D0BE
:10290000049B002BEEDBDDF818A0DAF8143013B1CD
:102910000AF10400C04703A83A4B9847049B092BCF
:10292000E7D801A252F823F0512940005129400074
:1029300051294000F3284000A5294000D12940003A
:102940005129400051294000F3284000A5294000AA
:10295000059CDAF8181023460246214450462D4CB7
:10296000A0470128BCD1DAF8243050469847DAF85D
:102970001C30012BB4D1DAF81820002100910B464D
:10298000059802445046244CA0470028A8D14FF097
:10299000800372B683F31188BFF36F8FBFF34F8F3D
:1029A00062B6FEE70599CAF8181031B1034602462F
:1029B00001445046174CA04792E74FF0800372B68F
:1029C00083F31188BFF36F8FBFF34F8F62B6FEE7BB
:1029D0005046134B984783E7B84704A8094B9847DC
:1029E0000546049B002B7FF478AF0E4B1B681A68DA
:1029F000B2FA82F2520900242DE700BF640B402096
:102A0000491D400069274000980B4020A91940004B
:102A1000B11E4000D1254000F9264000A517400016
:102A2000D1104000680B402004ED00E0610D400033
:102A300000B583B00023019308224FF020510948CC
:102A4000094B9847C0B238B901A9084B1868084B20
:102A5000984703B05DF804FB01A9064B1868044BC6
:102A60009847F6E7000E0E409D0440001C0C4020E5
:102A7000C5164000200C402000B583B0074D084C1F
:102A8000084E00231A4601A92868A0470028F8D05C
:102A900001993046044B9847F3E700BF240C4020CF
:102AA000A51740008C5F4000A52F400080B584B082
:102AB0000C203A4B9847002500952B4610224FF4E6
:102AC00000213748374CA047374C2B4608224FF09F
:102AD00020512046354DA847354B0093402308220E
:102AE0000A212046334DA84708212046324B9847FB
:102AF0002046324B9847324B4FF480621A60802256
:102B000083F80A232F4F04F580642F4E08E000233A
:102B10001A4619462D4800682D4DA847002830D187
:102B20003C20B8474FF4002120462A4B98474FF4E9
:102B3000FD70294B98474FF400212046274B9847BA
:102B400000231A46194626480068214DA847002848
:102B5000DDD000213046234B984703213046224BDD
:102B60009847174B0822C3F88020C3F880218021A2
:102B700083F803131A604FF4403130461B4B9847DB
:102B8000CEE704A940F2411341F8043D00231A4660
:102B900017480068174DA847C2E700BFBD084000AE
:102BA00000120E407F054000000E0E40A9054000B7
:102BB000312A4000C90640006B0640006F06400005
:102BC00000E100E0D11F400030180E401C0C4020F6
:102BD000A5174000950440000100402099044000E2
:102BE000200C4020C1014000AD014000ED0140003B
:102BF000240C4020E1134000F0B583B005460C469C
:102C0000002301932A4B984213D02A4B984218D0A4
:102C1000294B98421DD0294B9D4222D0284B9D42E2
:102C200027D0284B9D422ED0274B9D4235D003B054
:102C3000F0BD1F46254E21463846B0470028FAD140
:102C4000E9E71F46214E21463846B0470028FAD111
:102C5000E4E71F461D4E21463846B0470028FAD10A
:102C6000DFE71F46194E21463846B0470028FAD103
:102C7000DAE71E46164D01A93046A8470028FAD1CA
:102C8000019B2370D3E71E46114D01A93046A8478A
:102C90000028FAD1019B2370C9E71E460C4D01A9FB
:102CA0003046A8470028FAD1019B2370BFE700BF38
:102CB00000080E40000A0E40001A0E40001C0E4094
:102CC000004002400080024000C002402309400052
:102CD0002F0A400070B50C462A4B984213D02A4B5D
:102CE000984219D0294B98421FD0294B984225D0A1
:102CF000284B98422BD0284B984231D0274B9842F2
:102D000037D0002070BD1E46254D21463046A847CD
:102D10000028FAD1012070BD1E46214D21463046C3
:102D2000A8470028FAD1012070BD1E461C4D21463F
:102D30003046A8470028FAD1012070BD1E46184D24
:102D400021463046A8470028FAD1012070BD1E4612
:102D5000144D21463046A8470028FAD1012070BD05
:102D60001E46104D21463046A8470028FAD10120C2
:102D700070BD1E460B4D21463046A8470028FAD1AB
:102D8000012070BD00080E40000A0E40001A0E40DF
:102D9000001C0E40004002400080024000C0024083
:102DA00011094000190A400008B50A4601460248C8
:102DB000024B9847FEE700BFA05F4000A52F4000F0
:102DC00070474FF0800372B683F31188BFF36F8FA3
:102DD000BFF34F8F62B6FEE700B58BB03F4B98470D
:102DE0003F4B98473F4D404B1D60404A404B1A6057
:102DF000404A414B1A604FF4E1330493C0230593DA
:102E00004FF4006306930024079408940E203B4B74
:102E100098473B4A04A928463A4B984728463A4BDC
:102E200098472846394B9847394E33682146986869
:102E3000384DA847336821465868A847336821466B
:102E40009868A847224604218020334B9847334B8B
:102E50001860002836D00322002101202E4B98470D
:102E60002F4B18602D4B1B68002B2FD00322002105
:102E70000120294B98472B4B186000282AD00023AB
:102E800003930293019300934FF4C06226492748AD
:102E9000274CA047012802D02648274B98470023FB
:102EA00003930293019300934FF4C0622349244893
:102EB0001F4CA047012802D022481F4B9847224BA5
:102EC0009847FEE721481C4B9847C4E720481A4B17
:102ED0009847CBE71E48184B9847D0E701024000BF
:102EE000FD02400000800240D80B4020D52C40005D
:102EF000D40B4020F92B4000D00B4020BD084000EF
:102F000080D1F008B90940000D0A4000130A4000C2
:102F1000140040205937400065134000240C402025
:102F2000200C40201C0C40203C5F4000AD2A40009B
:102F3000851A4000445F4000A52F4000645F4000B8
:102F4000792A40006C5F4000B91C4000F05E4000F0
:102F5000145F400070B50F4E0F4D761BB61018BFB2
:102F6000002405D0013455F8043B9847A642F9D116
:102F70000A4E0B4D761B03F0D3F8B61018BF002491
:102F800006D0013455F8043B9847A642F9D170BDEC
:102F900070BD00BF2C6140002C61400034614000D6
:102FA0002C6140000FB400B5074983B004AB08683A
:102FB00053F8042B8168019300F050FD03B05DF8D5
:102FC00004EB04B0704700BF14004020024B0146E0
:102FD000186800F00BB800BF14004020024B0146F7
:102FE000186801F057BE00BF140040202DE9F04FD3
:102FF00001F10B06162E83B0054640F29E8036F096
:10300000070600F1BD80B14200F2BA8000F086FBF5
:10301000B6F5FC7FC0F09382730A00F0B880042BF1
:1030200000F27981B30903F1390003F1380EC300CE
:10303000BF4F3B44A3F108015C68A14206D10CE0FC
:10304000002A80F2AA80E468A14206D0636823F0D7
:1030500003039A1B0F2AF3DD70463C69DFF8E4E2B4
:10306000744500F0AB81636823F003039A1B0F2AB9
:1030700000F39081002AC7F814E0C7F810E080F24E
:103080009D80B3F5007F80F06181DB0803F1010CC6
:1030900099107A6857F83C80C4F8088001238B4067
:1030A00007EBCC0113430839E1607B6047F83C40F3
:1030B000C8F80C408210012494409C4200F28B809E
:1030C0001C4206D120F0030064001C4200F1040001
:1030D000FAD007EBC009CC468046DCF80C309C45A2
:1030E00007D16DE1002A80F27B81DB689C4500F00E
:1030F0006781596821F003018A1B0F2AF2DDD3F89A
:103100000CC0D3F8088000939C19284646F00106AD
:1031100042F001055E60C8F80CC0CCF808807C6104
:103120003C61C4F80CE0C4F808E065605A5000F057
:10313000FBFA009B03F108041EE0102920D800F0E0
:10314000EDFA102618230220794F3B44A3F1080220
:103150005C68944200F03D816368E168A66823F0F2
:103160000303234428465A68F16042F001028E604E
:103170005A6000F0D9FA0834204603B0BDE8F08F59
:1031800000240C2320462B6003B0BDE8F08F4020C4
:103190004FF400734FF03F0E4AE72344E1685A684A
:1031A000A66842F00102F16028468E605A6000F085
:1031B000BBFA0834204603B0BDE8F08F234428460C
:1031C0005A6842F001025A6000F0AEFA0834204614
:1031D00003B0BDE8F08FBC68636823F00308B04516
:1031E00004D3A8EB06030F2B00F38580DFF858917A
:1031F000504BD9F800201B680132334404EB080A15
:1032000000F0558103F580530F3323F47F6B2BF0CF
:103210000F0B5946284600F08DFA411C024600F07B
:10322000FC80824500F2F780434B196859441960CD
:1032300000F04D81D9F8000001301BBFA2EB0A0A53
:103240005144C9F80020196012F0070100F01581FF
:10325000C1F10800C1F580510244083102EB0B09AD
:10326000C9F30B09A1EB09094946284601930092CD
:1032700000F060FA431C9DE80C0000F04381801AC6
:10328000484440F001001968BA604944BC425060AB
:10329000196017D0B8F10F0F40F2FB806068A8F1F9
:1032A0000C0222F0070204EB020E00F001004FF0C6
:1032B000050C10430F2A6060CEF804C0CEF808C099
:1032C00000F217811D4BBC681A68914288BF1960D3
:1032D0001B4B1A689142626888BF196022F0030292
:1032E0009642A2EB060301D80F2B04DC284600F01F
:1032F0001BFA002440E7A21943F0010346F001063F
:1033000066602846BA60536000F00EFA0834204622
:1033100003B0BDE8F08F142B71D9542B00F2A380B9
:10332000330B03F16F0003F16E0EC30080E600BFA4
:1033300040044020CC0B40209C0B4020C40B40207C
:10334000C80B402048044020480840205A0A042A5C
:103350005BD9142A00F2AE8002F15C01C9005B3235
:1033600007EB010C7958ACF1080C8C4500F0888013
:103370004A6822F00302934273D289688C45F7D1E0
:10338000DCF80C207B68E260C4F808C09460CCF8DC
:103390000C408FE6A11946F0010C42F00106C4F87A
:1033A00004C0284679613961C1F80CE0C1F808E031
:1033B0004E60E25000F0B8F90834DDE67B6879E64B
:1033C00008F1010818F0030F0CF1080C7FF485AE2A
:1033D0002DE0DC68A34208BF02303FF43EAEBBE6FE
:1033E00019441C464A68DB6854F8086F42F0010231
:1033F0004A602846F3609E6000F096F9BCE603F14F
:103400005C0003F15B0EC30012E69A0902F1390178
:10341000C9003832A4E7BC4254D0BC68626822F0CC
:1034200003025DE759F80839994540F0868010F0AD
:10343000030F00F1FF30F5D17B6823EA04037B60C2
:1034400064009C423FF6C7AE002C3FF4C4AE1C4261
:1034500040467FF43EAE64001C4200F10400FAD006
:1034600037E68C468CE7B3F5AA7F15D8F30B03F14A
:10347000780003F1770EC300DAE54FF48051EDE6F2
:103480007B689210012101FA02F213437B606246CD
:1034900079E70123536029E740F25452934222D83E
:1034A000B30C03F17D0003F17C0EC300C0E503F112
:1034B000100BAEE6542A29D81A0B02F16F01C9008D
:1034C0006E324DE7204B196859441960B2E6CAF3D1
:1034D0000B0000287FF4AEAE08EB0B03BA6843F094
:1034E00001035360EEE67F204FF47E734FF07E0EB3
:1034F0009EE504F108012846009301F0CBFB009BF8
:103500001968DFE601204FF00009BCE6B2F5AA7F9A
:1035100005D8DA0B02F17801C900773220E740F2D2
:1035200054518A4205D89A0C02F17D01C9007C32BF
:1035300016E74FF47E717E2212E77B6880E7F00881
:1035400006F1080300E600BF9C0B4020844641EAD8
:10355000000313F003036DD1403A41D351F8043B0B
:1035600040F8043B51F8043B40F8043B51F8043B5D
:1035700040F8043B51F8043B40F8043B51F8043B4D
:1035800040F8043B51F8043B40F8043B51F8043B3D
:1035900040F8043B51F8043B40F8043B51F8043B2D
:1035A00040F8043B51F8043B40F8043B51F8043B1D
:1035B00040F8043B51F8043B40F8043B51F8043B0D
:1035C00040F8043B51F8043B40F8043B51F8043BFD
:1035D00040F8043B51F8043B40F8043B403ABDD26C
:1035E000303211D351F8043B40F8043B51F8043B0E
:1035F00040F8043B51F8043B40F8043B51F8043BCD
:1036000040F8043B103AEDD20C3205D351F8043B9C
:1036100040F8043B043AF9D2043208D0D2071CBF68
:1036200011F8013B00F8013B01D30B880380604691
:10363000704700BF082A13D38B078DD010F0030307
:103640008AD0C3F10403D21ADB071CBF11F8013B77
:1036500000F8013B80D331F8023B20F8023B7BE7C6
:10366000043AD9D3013A11F8013B00F8013BF9D2F1
:103670000B7803704B7843708B788370604670478B
:1036800070B4860746D0541E002A41D0CAB2034601
:1036900002E014F1FF343BD303F8012B9D07F8D16E
:1036A000032C2ED9CDB245EA05250F2C45EA054558
:1036B00019D903F110022646103E0F2E42F8105C75
:1036C00042F80C5C42F8085C42F8045C02F110021B
:1036D000F2D8A4F1100222F00F0204F00F0410320D
:1036E000032C13440DD91E462246043A032A46F8F9
:1036F000045BFAD8221F22F003020432134404F0C0
:1037000003042CB1C9B21C4403F8011B9C42FBD139
:1037100070BC704714460346C2E700BF014801F081
:1037200053BD00BF380C4020014801F04FBD00BF21
:10373000380C402038B5074C002305460846236066
:10374000FDF7B2FA431C00D038BD2368002BFBD034
:103750002B6038BD4C0C402000290CBF02220022F7
:103760004FF4806300F000B82DE9F043614C256808
:1037700083B004460F4690461E4615B1AB6B002B36
:1037800064D0B8F1020F06D0B8F1010F00F29F80AB
:10379000002EC0F29C80636ED80734D5214628469F
:1037A00001F0FAF8216B41B104F14003994202D0D3
:1037B000284601F06FFA00232363B4F90C3000228D
:1037C000A26162601A063AD423F44A6323F0030329
:1037D000B8F1020FA3811DD001AB6A4621462846ED
:1037E00001F0F6FCA3891843A081002E32D1009E7F
:1037F0003046FFF7EBFB074600286BD0A38943F068
:103800008003A38128E0A3899905C7D4A06D01F0A6
:10381000DBFCC3E70025616E002604F1430243F0A0
:1038200002030120A660CE07A381226022616061AD
:1038300001D498053ED5284603B0BDE8F083216940
:10384000284601F027FAB4F90C30BDE7284601F00C
:10385000FBF896E7002FCBD0AB6B002B33D0009B4F
:10386000B4F90C2027609E421CBF42F40062A28182
:10387000B8F1010F04BF42F00102A28192B212F02E
:103880000803276166610ED0D1071AD5656E7642AE
:10389000002315F00105A661A36009D00025284684
:1038A00003B0BDE8F083A360656E15F00105F5D1A6
:1038B0009305C0D4A06D01F089FC284603B0BDE893
:1038C000F083A660F0E7284601F0BEF8C7E74FF0A6
:1038D000FF35B0E7DDF80090B14504D04846FFF76A
:1038E00075FB074620B9B4F90C304FF0FF3592E76D
:1038F0004E4683E714004020000000000000000056
:1039000090F800F06DE9024520F007016FF0000C1F
:1039100010F0070491F820F040F049804FF00004C7
:103920006FF00700D1E9002391F840F000F10800A2
:1039300082FA4CF2A4FA8CF283FA4CF3A2FA8CF3DA
:103940004BBBD1E9022382FA4CF200F10800A4FA41
:103950008CF283FA4CF3A2FA8CF3E3B9D1E9042395
:1039600082FA4CF200F10800A4FA8CF283FA4CF3CC
:10397000A2FA8CF37BB9D1E9062301F1200182FA86
:103980004CF200F10800A4FA8CF283FA4CF3A2FA8C
:103990008CF3002BC6D0002A04BF04301A4612BA9A
:1039A000B2FA82F2FDE8024500EBD2007047D1E99D
:1039B000002304F00305C4F100004FEAC50514F02C
:1039C000040F91F840F00CFA05F562EA05021CBFFD
:1039D00063EA050362464FF00004A9E72DE9F84FBA
:1039E0004B6E9C0493462FD59368126853B30E46D2
:1039F000074602F1080919E920045FEA9A0817D07E
:103A0000043D002401E0A04510D0324655F8041FC3
:103A1000384601F0BBF8431C04F10104F3D1002344
:103A2000CBF80830CBF80430BDE8F88FDBF808306D
:103A30002AF0030AA3EB0A03CBF8083009F10809BE
:103A4000002BD8D10020EAE701F00AFA0023CBF8D6
:103A50000830CBF80430BDE8F88F00BF2DE9F04FF7
:103A6000ADB01D468B4690460793069018B1836B08
:103A7000002B00F0F380DBF86430BBF90C00DF07AB
:103A800081B202D48E0540F1FC808C040AD4DBF8AC
:103A9000643040F4005123F40053ABF80C10CBF821
:103AA000643089B2080740F1B380DBF81030002B96
:103AB00000F0AE8001F01A030A2B00F0B58000235D
:103AC0000DF170090B93119310930393CDF83C9073
:103AD000CA46CDF810B098F800304446FBB1252B0B
:103AE00002D11CE0252B03D014F8013F002BF9D1A3
:103AF000A4EB08059DB1109B119ACAF80080013310
:103B00002A44072BCAF80450119210937ADD002A38
:103B100040F0B084039B10922B44CA460393237851
:103B2000002B00F0E08300204FF000038DF83730C9
:103B300004F1010862780546064603464FF0FF345B
:103B400008F10108A2F12001582900F2DE82DFE825
:103B500011F02102DC02DC022902DC02DC02DC02C0
:103B6000DC02DC02DC0289029502DC02A200BD025A
:103B7000DC029F01A401A401A401A401A401A401E9
:103B8000A401A401A401DC02DC02DC02DC02DC02F0
:103B9000DC02DC02DC02DC02DC02B201DC02DC0260
:103BA000DC02DC02DC02DC02DC02DC02DC02DC0225
:103BB0009701DC02DC02DC02DC02DC029B01DC029D
:103BC000DC025302DC02DC02DC02DC02DC02DC028E
:103BD000DC02DC02DC02DC025A021B02DC02DC0238
:103BE000DC026E021B02DC02DC027302DC02F50165
:103BF00082010902D702DC029A02DC02A700DC0281
:103C0000DC022E020AF1080A039B2B44039386E789
:103C10005946069800F0ACFD18BBBBF80C1001F03B
:103C20001A030A2B7FF44BAFBBF90E30002BFFF6C3
:103C300046AFDBF86430DB0705D48F0503D4DBF82F
:103C4000580001F0C3FA2B4642465946069800F048
:103C50004DFD039003982DB0BDE8F08F00F0F4FE09
:103C600009E7DBF86430D90704D4BBF80C309A05B7
:103C700040F1AA844FF0FF33039303982DB0BDE8C1
:103C8000F08FDBF8580001F09FFABBF90C0081B20D
:103C9000FBE67642079243F0040398F800204FE7D2
:103CA00008969E0600F150840799DD060A4600F149
:103CB000EF83580640F1EC830E880431002701227F
:103CC00007914FF000018DF837100025611C00F0BE
:103CD000168123F08001029156EA070140F0148119
:103CE000002C40F05C83002A40F0B78313F00103FE
:103CF000059300F057840DF1B00B30230BF8413DD4
:103D0000059BA342B8BF234601930DB10133019334
:103D1000029B13F00203099302D0019B023301932B
:103D2000029B13F084030A9340F01782089B019AC8
:103D30009D1A002D40F31182102D40F39084109BAA
:103D4000119AC44ED6461027A2461946069C07E093
:103D500001F1020C0EF1080E0146103D102D11DD8F
:103D6000481C1032072811928EE8C0001090EFDD39
:103D7000002A40F0E481103D102D11464FF0010C57
:103D8000CE46EDDC54466146F2462A44072911929C
:103D9000CAF80060CAF80450109100F3EC829DF854
:103DA00037500AF1080A481C002D40F0DE81099BBB
:103DB000002B00F0F88102320EA90223072811928D
:103DC00010908AE80A0040F3EA81002A40F08C83D0
:103DD0000A9B802B4FF001001146CA4640F0E78154
:103DE000089B019D5E1B002E40F3E181102E9A4D31
:103DF00040F35084D4461027A246069C07E001F108
:103E0000020E0CF1080C0146103E102E11DD481C6C
:103E10001032072811928CE8A0001090EFDD002AE4
:103E200040F09D82103E102E4FF0010E1146CC4600
:103E3000EDDC5446E2463244BEF1070F11928AE8A7
:103E40006000CDF840E000F369830AF1080A0EF142
:103E500001007146ABE1089613F0200240F08C831C
:103E600013F0100140F01A8313F0400200F01683A3
:103E700007980A460146043106880791002720E783
:103E8000089643F01003E7E7089643F0100308E7AD
:103E900043F0800398F8002052E6A2F1300100269A
:103EA00018F8012B06EB860601EB4606A2F130015D
:103EB0000929F5D946E60896002840F0088443F021
:103EC00010039E0600F14C83DD0600F1F3825806D4
:103ED00040F1F082079DB5F900602A46F7170432D9
:103EE000304639460792002871F10002C0F25D8326
:103EF000611C9DF837504FF001027FF4EAAE56EA9C
:103F0000070100F04D820293012A00F08C82022A00
:103F100040F05C820B98CB46330906F00F0143EA70
:103F200007733A091E461746435C0BF8013D56EAF3
:103F30000703F1D1A9EB0B030593E1E6002840F05C
:103F4000C083990600F16783DA0600F1F1805B0611
:103F500040F1EE80079A136804320792BDF80C20F6
:103F60001A80B8E507983D4A08960B9206687822B1
:103F7000302104308DF8392043F0020307900027E8
:103F80008DF8381002229CE60896002899D08DF80A
:103F9000375096E798F80020002D7FF4D1AD01202E
:103FA0002025CDE543F0010398F80020C8E50896E8
:103FB000002840F0938329490B919F0600F1E88285
:103FC0000798DE06014600F170825D0640F16D82C1
:103FD0000431068807910027D80740F1228256EA6B
:103FE000070100F01E8230218DF8392043F00203D2
:103FF0008DF83810022264E60896002840F06B83A2
:1040000017490B91D9E7079908960A688DF8482057
:104010004FF000000A468DF837000432012001906D
:10402000079205900DF1480B0293002470E643F0CF
:10403000400398F8002083E598F800206C2A03BF1D
:1040400098F8012043F0200308F1010843F0100321
:1040500076E500BFEC5F4000FC5F4000D05F4000B1
:10406000BC5F400007990E680A46002E02F1040268
:10407000FFF60FAE079298F8002061E598F800204F
:1040800001202B255CE507990896D1F800B04FF088
:1040900000028DF837200E1DBBF1000F00F0E58205
:1040A000671C00F0C482224600215846019301F0AB
:1040B0001FF9019B002800F0E582A0EB0B0205929E
:1040C000079602939DF83750002419E698F80020CF
:1040D0002A2A08F1010700F0E982A2F1300109293A
:1040E000B8464FF000043FF62DAD18F8012B04EB55
:1040F000840401EB4404A2F130010929F5D921E53A
:1041000043F0200398F800201AE50896002840F0B4
:10411000DB82002A00F0E78001218DF848204FF073
:10412000000201918DF8372005910DF1480B7BE7D6
:10413000079A136804320792039A1A60CBE40FAA15
:1041400004992046FFF74AFC002840F03981109975
:10415000119A01F1010CCE46FFE51099119A481C05
:104160009DF83750002D3FF422AE01320DF1370596
:104170000121072811921090CAF80050CAF80410C3
:1041800040F30881002A40F0BC81099B002B3FF4DA
:104190001FAE0EAB022208461C931D92CA46014672
:1041A0000AF1080A01300A9B802B3FF419AE059BE7
:1041B000E41A002C2EDD102CB34D1EDDD646102641
:1041C000069FDDF810A006E0881C0EF1080E1946C7
:1041D000103C102C10DD4B1C1032072B11928EE876
:1041E00060001093F0DD002A65D1103C102C4FF0D8
:1041F00001001146CE46EEDCF24622440728119219
:10420000CAF80050CAF80440109000F385800AF103
:10421000080A01300599CAF800B00A44072811922B
:10422000CAF80410109040F38280002A40F01881F0
:10423000029B1092580735D5089B01995C1A002CF7
:1042400040F3E780CA46102C40F3188210998F4E35
:10425000069FDDF810B0102506E0881C0AF1080A58
:104260001946103C102C11DD4B1C1032072B1192FB
:10427000CAF80060CAF804501093EEDD42BB103C4F
:10428000102C4FF001001146CA46EDDC22440728ED
:104290001192CAF80060CAF80440109051DD002A5B
:1042A00040F09B81039B089A01998A42ACBF9B18FE
:1042B0005B1803934EE00FAA51463846FFF78EFB7A
:1042C000002840F03F811099119A481CCE467FE7A4
:1042D0000FAA59463846FFF781FB60B91099119A29
:1042E000481CCA46BDE7119BDDF810B0002B40F01A
:1042F000D48100231093DBF8643013F0010FBBF876
:104300000C3002D19A0540F1DE805B063FF5B2AC7D
:1043100003982DB0BDE8F08F002A40F00681059A81
:104320001D9201231192CDF870B01093CA460AF184
:10433000080A029B590704D5089B01995C1A002CB6
:1043400081DC039B089901988142ACBF5B181B1864
:10435000039372BB00231093CA46FFF7BCBB0FAA9E
:1043600004992046FFF73AFB50BB1099119A01F1CE
:10437000010ECC4648E5002A40F040819DF83710F8
:10438000002900F01B8101220DF1370110461D921A
:104390001C91CA4601460AF1080A013007E5029B52
:1043A000012A00F09880022A0DD1029300260027EE
:1043B000B0E50FAA04990698FFF710FB0028C9D0B2
:1043C000DDF810B097E7029300260027494600E089
:1043D0005946F20842EA4772F80806F00703074612
:1043E0001646303356EA070201F8013C01F1FF3B63
:1043F000EED1029AD6077FF59DAD302B3FF49AADF2
:10440000023930230BF8013CA9EB010305938B46DD
:1044100076E4039B089A8A42ACBF9B185B1803930F
:1044200098E702224DE4002F08BF0A2E52D3CB4654
:10443000304639460A22002301F0C6FB30320BF821
:10444000012D3046394600230A2201F0BDFB064605
:104450000F4656EA0703EBD16CE50594CB464FE4D3
:104460000FAA04990698FFF7B9FA0028A8D1119A63
:10447000CA465EE70FAA04990698FFF7AFFA00282C
:104480009ED1CA46FFF7C0BBFC5F4000EC5F400016
:104490000431166807910122002712E407980146AB
:1044A00004310668079100270BE40E680431079178
:1044B000002791E507990E680A46F717043207921C
:1044C000304639460FE5DBF8580000F07FFEBBF8B8
:1044D0000C301AE7029B02930DF1B00B303601232A
:1044E0000BF8416D05930BE40FAA04990698FFF7AA
:1044F00075FA00287FF464AF1099119A481CCA46D7
:1045000051E60FAA04990698FFF768FA00287FF48D
:1045100057AF1099119A481CCA4648E4002A40F047
:10452000918001201146CA4641E60FAA04990698D7
:10453000FFF754FA00287FF443AF1098119A013026
:10454000CA4667E6D346D6E6079E073626F0070238
:1045500002F10801D2E9006707910122FFF7B1BB20
:10456000079E073626F00706D6E9000106F1080285
:10457000079206460F46B6E4079E073626F0070266
:1045800002F10801D2E9006707910022FFF799BB09
:10459000079E073626F0070101F108000790D1E9D0
:1045A000006719E5CB46FFF7ABBB2D25764267EBDD
:1045B00047078DF837500122FFF788BB099BB3B935
:1045C00011460120CA46F2E5DBF8580000F0FEFD76
:1045D0004FF0FF330393FFF750BB0FAA04990698DF
:1045E000FFF7FCF900287FF4EBAE119AA9E60EABB9
:1045F00002221C931D920120CA46D0E50FAA0499FD
:104600000698FFF7EBF900287FF4DAAE1099119ABB
:10461000481CCA46A4E5079A03991368CD170846B3
:10462000043229460792C3E90001FFF754BA5846FD
:1046300007960293FFF764F9002405909DF8375020
:10464000FFF75EBB0FAA04990698FFF7C7F9002889
:104650007FF4B6AE1099119A481CCA46A7E5109986
:10466000119A204E0131FFF790BB062C28BF06247B
:10467000059407960194DFF870B0D5E41098194EB0
:10468000013003E605949DF83750079602930446DF
:10469000FFF736BB8646FFF7CEBB06980FAA5946F2
:1046A000FFF79CF900283FF424AE24E6079998F818
:1046B00001200C68043144EAE474B8460791FFF71E
:1046C0003FBA8DF837503CE48DF8375021E58DF82E
:1046D0003750FFF7F4BB8DF8375091E48DF8375021
:1046E00069E400BFEC5F4000E45F40002DE9F04169
:1046F0000C46ADF58D6D8989666EE589199621F0B8
:1047000002010646E069ADF80C1017464FF48061CF
:10471000626AADF80E5098461AAD0023079016A8AD
:1047200009920693009504950291059100F048FDC9
:1047300043463A4669463046FFF790F9051E07DBC7
:104740003046694600F028F9002818BF4FF0FF35C1
:10475000BDF80C305B0603D5A38943F04003A38169
:10476000169800F02FFD28460DF58D6DBDE8F081FF
:1047700038B5304B1B6805460C4613B19A6B002ABE
:1047800038D0B4F90C2093B218070CD52069A8B121
:1047900013F001021ED0636900225B42A361A26094
:1047A000F0B1002038BDD9063CD5580726D4206981
:1047B00042F00803A3819BB20028E9D103F42072E0
:1047C000B2F5007FE4D02846214600F02FFDA389F2
:1047D0002069DDE7990758BF6269A2600028E0D12F
:1047E000B4F90C301A06DDD543F04003A3814FF035
:1047F000FF3038BD184600F027F9C2E7216B51B1F0
:1048000004F14003994204D0284600F043FAB4F979
:104810000C200023236300232069636022F024021C
:104820002060C5E742F0400209232B604FF0FF30C3
:10483000A28138BD14004020024B13B1024800F0A1
:1048400005B8704700000000B94A40000023014647
:104850001A46184601F090B8B1F90C309AB22DE919
:10486000F0410D46110780463AD46A6843F400636C
:10487000002AAB816FDDAC6A002C49D000229BB2CC
:10488000D8F80060C8F8002013F4805267D02A6D71
:104890005F0705D569682B6B521A0BB1EB6BD21A07
:1048A0000023E9694046A047441C3CD0B5F90C30D0
:1048B0002A692A6023F400630022AB81DB046A606A
:1048C00047D4296BC8F8006011B305F14003994241
:1048D00002D0404600F0DEF900202863BDE8F081F8
:1048E0002E69AEB12C682E6091070CBF6B69002356
:1048F000A41BAB600AE0234632466F6AE969404672
:10490000B8470028A4EB0004064404DD002CF2DCC8
:104910000020BDE8F081AB8943F04003AB814FF04C
:10492000FF30BDE8F081D8F800401D2CF3D8194BBA
:10493000E340DB4313F00103EDD1B5F90C206B60CC
:1049400022F400632969AB81DA042960B9D5002C0F
:10495000B7D12865B5E7EA6B002A8CDCD8E70123DC
:10496000E9694046A047431C024602D0AB89AC6AC5
:104970008EE7D8F80030002BF8D01D2B01D0162B75
:1049800002D1C8F80060C3E7AB8943F04003AB81B4
:10499000BDE8F0810100402038B50D46044608B15D
:1049A000836BBBB1B5F90C0088B16B6EDB0701D42A
:1049B000810517D520462946FFF74EFF6B6EDA07B3
:1049C000044602D4AB899B0507D5204638BD044672
:1049D000204638BD00F038F8E4E7A86D00F0F6FB9B
:1049E000204638BDA86D00F0EFFBE3E7014900F079
:1049F000AFBB00BF615A400010B50023044681815F
:104A0000C2810360436083604366036143618361E5
:104A1000194608225C30FEF733FE07480749084A6A
:104A2000084B2062E4616162A262E36204F1580013
:104A3000BDE8104000F0C4BBA5574000C957400076
:104A4000055840002558400010B50446124800F0B3
:104A5000BBFBA26BD2B904F53B731048C4F8E83233
:104A60000321C4F8E022E063C4F8E4126068042182
:104A7000FFF7C2FF01220921A068FFF7BDFF022254
:104A80001221E068FFF7B8FF0123A3630248BDE8E5
:104A9000104000F09BBB00BF340C4020ED494000AB
:104AA000014800F091BB00BF480C4020014800F0D5
:104AB0008DBB00BF480C402038B50A4C0A4D641B22
:104AC000A4100AD004F18043013B05EB8305013CAF
:104AD00055F804399847002CF9D1BDE8384001F069
:104AE00029BB00BF44614000406140002DE9F04710
:104AF00082B080468946144600F054FB012836D027
:104B00004A4604F15C0301A9404600F0E7FE421C5E
:104B1000064625D0A8B39DF804E000250DF1040A4F
:104B200009E023685A1C226083F800E00135B54291
:104B300027D215F80AE0A368013B002BA360F0DA46
:104B4000A769BB4271462246404602DBBEF10A0F0E
:104B5000E7D100F06BFE431CE8D102B0BDE8F0875E
:104B6000A38943F04003A38102B0BDE8F08709F1B7
:104B7000FF33FE2BC4D85FFA89FE06468DF804E0A9
:104B8000CBE7484602B0BDE8F08700BF30B5536EB2
:104B900013F0010FB2F90C30144683B005469AB2F7
:104BA00001D190051CD5900406D4626E43F40053E5
:104BB00042F40052A381626628462246FFF796FF20
:104BC000636EDA07054602D4A3899B0502D5284601
:104BD00003B030BDA06D00F0F9FA284603B030BD37
:104BE000A06D019100F0F0FAB4F90C3001999AB27D
:104BF000D9E700BFF8B5244F0C460646FEF78EFDF8
:104C0000BB685D68C4F57E610F3125F0030529445A
:104C100021F47F6121F00F01A1F58054B4F5805F8C
:104C200007DB00213046FEF785FDBB682B44984228
:104C300004D03046FEF778FD0020F8BD61423046D2
:104C4000FEF778FD01300DD0104BBA6819682D1BA6
:104C500045F001053046091B55601960FEF764FDFB
:104C60000120F8BD00213046FEF764FDBA68831AC2
:104C70000F2BDEDD064C0549246843F00103001BC1
:104C800053600860D5E700BF400440209C0B4020E3
:104C900048084020002944D02DE9F0410D468046C7
:104CA000FEF73CFD55F8047C694927F00103A5F1A6
:104CB0000804E2188E685068B24220F003005ED00B
:104CC000FE0750600BD455F8087CE41B01F1080E78
:104CD000A56875453B446DD0E768EF60BD60151869
:104CE0006D68ED073ED543F001026260E350B3F515
:104CF000007F17D2DB08581C9A104D6851F83070AD
:104D0000A7600123934001EBC0022B43083AE26005
:104D10004B6041F83040FC604046BDE8F041FEF792
:104D200003BD70475A0A042A52D89A0902F139077A
:104D3000FF0002F13805C819CA59083890424FD00F
:104D4000516821F003018B4232D292689042F7D130
:104D5000C368A060E3609C60C4604046BDE8F04169
:104D6000FEF7E2BC95683B4FBD42034440D0D0689B
:104D7000E86043F0010285606260E350B7E7FF0737
:104D8000034407D455F8082CA41A1344A068E26819
:104D9000C2609060304A126843F001009342606044
:104DA0008C60B9D32D4B40461968FFF723FFB3E75A
:104DB0001046CDE711184968C90744D49168D268F4
:104DC000CA60034443F0010091606060E350A3E7D0
:104DD000142A16D802F15C07FF0002F15B05AAE76E
:104DE000AA1001234D6893402B434B600346B0E764
:104DF00043F001024C610C61E560A5606260E35024
:104E00008AE7542A06D81A0B02F16F07FF0002F155
:104E10006E0590E7B2F5AA7F06D8DA0B02F17807A3
:104E2000FF0002F1770586E740F25450824206D82F
:104E30009A0C02F17D07FF0002F17C057BE74FF43D
:104E40007E777E2577E743F001016160136063E7B9
:104E500040044020480440204C084020CC0B402017
:104E60009368002B73D02DE9F04F8B8983B00C46EB
:104E700019070090164626D5226922B313F00200C6
:104E800035682CD04FF00009B04FC846B246B8453F
:104E900043464A4628BF3B460098B8F1000F50D021
:104EA000E169666AB047002858DDDAF808301B1A55
:104EB0008144A8EB0008CAF80830002BE7D1002095
:104EC00003B0BDE8F08F21460098FFF751FC0028A1
:104ED00040F03381A389356813F00200D2D113F07A
:104EE000010945D14F46019637B39A05D4F8088099
:104EF00040F183804745C346C0F0AB8013F4906F08
:104F000040F0AC802068BA465A46494600F040FA64
:104F1000A2682368A2EB08025B44A2602360019AA6
:104F20009368A3EB0A03D144A7EB0A079360002B15
:104F3000C5D0A389002FD8D1D5F800906F68083567
:104F4000D2E7D5F80090D5F8048008359FE7002017
:104F5000704721460098FFF71FFD70B3B4F90C307D
:104F600043F040034FF0FF30A38103B0BDE8F08F62
:104F7000814633464E46A8469A464D464EB380B3C8
:104F8000206823696269B145CB4628BFB346984281
:104F90005F4604D9A36813449B4500F3A68093455C
:104FA0004BDB1346676AE16900982A46B847071E3B
:104FB000D4DDB9EB0709CCD00120DAF80830DB1BCF
:104FC0003D44F61BCAF80830002B3FF478AF002EA2
:104FD000D5D108F1080313E9600098460833002E84
:104FE000F9D032460A21284600F082F9002800F064
:104FF000A1800130A0EB0509C2E72068236998422F
:1050000002D863699F425DD2B84528BFB846424680
:10501000494600F0BDF9A3682268A3EB08034244A7
:10502000A36022600BB1C24679E721460098FFF7E2
:10503000B3FC002892D1C24671E75A46294600F0D7
:10504000A7F9A2682368A2EB0B025B44A26023606D
:10505000AFE72068B846BA46BB4655E762692068A4
:10506000216902EB4208A0EB010A08EBD8780AF1AB
:1050700001004FEA680838444045424684BF8046F4
:1050800042465B0544D511460098FDF7AFFF8346C5
:10509000002855D052462169FEF758FAA38923F417
:1050A000906343F08003A3810BEB0A00A8EB0A0393
:1050B000C4F810B0C4F814802060A360B846BA46A3
:1050C000BB4621E76FF00041B94228BF39464A4646
:1050D00091FBF3F10098666A03FB01F3E169B047C5
:1050E000B0F1000A3FF71BAF38E71A462946019393
:1050F00000F04EF92268019B00981A442260214674
:10510000FFF74AFC019B00287FF428AF1F4650E7B9
:10511000009800F0A1F983460028C5D1009D2169BF
:105120002846FFF7B7FDB4F90C300C2223F08003BA
:105130002A6015E706F1010922E74FF0FF30BFE6CC
:10514000009A0C231360B4F90C3009E700FCFF7FD0
:105150002DE9F84310F538771FD0884606464FF002
:1051600000097D68BC68013D11D4A389012B05F1BC
:10517000FF3508D9B4F90E3001332146304602D04C
:10518000C04749EA00096B1C04F16804EDD13F688F
:10519000002FE6D14846BDE8F883B9464846BDE849
:1051A000F88300BF044B054A1B685B6B002B08BFEC
:1051B000134693F8280170471400402054084020FB
:1051C000704700BF704700BF704700BF704700BF07
:1051D00070B50C46B1F90E10002990B015461E4668
:1051E00014DB01AA00F09EFC00280FDB029A02F4F7
:1051F0007042A2F50052B2FA82F252094FF4806373
:105200004FF4006032602B6010B070BDA2890023A3
:1052100012F08000336004D0402218462A6010B09B
:1052200070BD4FF480632B6010B070BD8A89920707
:105230000B4606D501F1430201211A601A6159613A
:105240007047F0B583B001AB6A460C460646FFF7DF
:10525000BFFF009905463046FDF7C8FEB4F90C3093
:10526000D8B1019A154F0099F76343F08003A381E9
:105270002060206161611AB92B43A38103B0F0BDA6
:105280003046B4F90E1000F061FCA0B1A38923F000
:10529000030343F001031BB2EEE79A05EED423F0BB
:1052A000030304F1430243F002030121A3812260BE
:1052B00022616161E2E7B4F90C30DDE7ED494000BD
:1052C00082B049B15AB16BB113780B601278101CDF
:1052D00018BF012002B0704701A9002AF3D110467F
:1052E00002B070476FF00100F4E700BF000000005B
:1052F00001F0FF01102A2BDB10F0070F08D010F887
:10530000013B013A8B422DD010F0070F42B3F6D18A
:10531000F0B441EA012141EA014122F007047FF0A3
:1053200000070023F0E80256083C85EA010586EAFA
:10533000010685FA47F5A3FA87F586FA47F6A5FA36
:1053400087F68EB9EED1F0BC01F0FF0102F0070242
:1053500032B110F8013B013A83EA010313B1F8D1ED
:105360000020704701387047002D06BF35460338CE
:10537000073815F0010F07D1013015F4807F02BF07
:10538000013015F4C03F0130F0BC0138704700BF58
:105390008842F0B50DD98B1898420AD28418002A99
:1053A00051D0224613F8014D02F8014D9942F9D12E
:1053B000F0BD0F2A48D941EA00039B0746D100F10E
:1053C000100401F11003154653F8106C44F8106CEA
:1053D00053F80C6C44F80C6C53F8086C44F8086CE7
:1053E000103D53F8046C44F8046C0F2D03F11003C6
:1053F00004F11004E8D8A2F1100323F00F0302F027
:105400000F0E1033BEF1030F1944034421D91E1FA0
:105410000D467446043C55F8047B46F8047F032C83
:10542000F8D8AEF1040424F00304043421442344E6
:1054300002F0030262B1013B0A4411F8014B03F888
:10544000014F8A42F9D1F0BD0346F3E70346F2E784
:10545000F0BD7246EEE700BF002900F095802DE90F
:10546000F04F0D46164683B0804606F10B07FEF757
:1054700055F955F804EC162F2EF00304A5F1080990
:105480003CD810221746BE423DD8944243DAC44B62
:10549000996809EB0400884200F0B480436823F067
:1054A000010101444968C9074CD51EF0010F00F005
:1054B0009B8031464046FDF799FD064600283AD0CC
:1054C00055F8043C23F001034B44A0F108029A4232
:1054D00000F02181221F242A00F20781132A00F202
:1054E000DB8003462A46116819605168596092684A
:1054F0009A6029464046FFF7CDFB1CE027F00707DE
:10550000002F3A46BFDA00260C233046C8F8003098
:1055100003B0BDE8F08F2E46E31B0F2B1ED8D9F841
:10552000043003F0010323434C44C9F8043063689A
:1055300043F0010363604046FEF7F6F8304603B0DF
:10554000BDE8F08F23F00303E11891421FDBC3682D
:1055500082682E46D3600C469A60DDE7D9F80420B5
:1055600009EB070102F001024C4443F00103174329
:10557000C9F804704B60636843F00103083163604D
:105580004046FFF787FBD6E71146FDF72FBD1EF01B
:10559000010F8ED155F8081CA9EB010ADAF80410A6
:1055A00021F003010B442344934225DBC268816848
:1055B0005646CA609160DAF80C1056F8080F221FA0
:1055C000242AC160886000F29480132A6FD9296868
:1055D000CAF808106968CAF80C101B2A00F2A280E9
:1055E00008350AF1100263E055F8083CA9EB030AFC
:1055F000DAF8041021F0030163189342FFF659AF63
:105600005646D8E7416821F0030BA34407F1100088
:10561000834556DA1EF0010F7FF44BAF55F8081C96
:10562000A9EB010ADAF8041021F003018B44584574
:10563000E2DC5646DAF80C1056F8080F221F242A2E
:10564000C160886000F28F80132A40F28A80296846
:10565000CAF808106968CAF80C101B2A00F28A8080
:1056600008350AF110022968116069685160A9685B
:1056700091600AEB0701ABEB070242F0010299606F
:105680004A60DAF8043003F001031F434046CAF8C9
:105690000470FEF749F851E72B6803606B684360BC
:1056A0001B2A2DD800F1080305F108021BE732463A
:1056B0002968116069685160A96891601C46D146EB
:1056C0002AE709EB0701ABEB070B4BF001029960EE
:1056D0004A6055F8043C03F001031F43404645F877
:1056E000047CFEF721F82E4628E72946FFF750FEF6
:1056F000FFE6294630461C46D146FFF749FE0BE738
:10570000AB688360EB68C360242A17D000F11003F4
:1057100005F11002E7E650F8043C23F003031C44B3
:105720002E46F9E6A968CAF81010E968CAF81410FC
:10573000242A0CD010350AF11802B9E72B6903614D
:105740006B69436105F1180200F11803CBE62A6981
:10575000CAF818206A69CAF81C2018350AF1200214
:10576000A6E732467FE7294630460193FFF710FE51
:10577000019B7EE7A968CAF81010E968CAF81410FE
:10578000242A03D010350AF118026CE72A69CAF8F6
:1057900018206A69CAF81C2018350AF1200262E74D
:1057A0004004402010B50C46B1F90E1000F0F6F997
:1057B000002803DB236D0344236510BDA38923F474
:1057C0008053A38110BD00BF2DE9F0411646B1F909
:1057D0000C201F46D3050C46054607D500220223A0
:1057E000B1F90E1000F0C4F9B4F90C20B4F90E10A0
:1057F00022F48052A2813B4632462846BDE8F04161
:1058000000F0A4B810B50C46B1F90E1000F0B0F9D4
:10581000A389421C0EBF23F4805343F480532065B8
:10582000A38110BDB1F90E1000F008B9F8B50D460E
:105830001446064610B1836B002B4BD0B4F90C20F4
:10584000A369A36091B2080739D52369002B36D02C
:10585000EDB289042F4615D522686169D31A8B42AF
:105860001CDA0133A168501C0139A1602060157059
:1058700062699A421AD0A389DB0701D50A2D15D097
:105880003846F8BD616E42F4005221F40051A28105
:10589000226861666169D31A8B42E2DB2146304699
:1058A000FFF77AF840B922680123DBE7214630464A
:1058B000FFF772F80028E3D04FF0FF37E0E721460A
:1058C0003046FEF755FF0028F6D1B4F90C202369C5
:1058D00091B2BDE7FFF7B8F8B0E700BFF0B50646F4
:1058E00085B01F4689B1104C104D2468646B002CA4
:1058F00008BF2C46D4F8E040A047431C03D1002247
:105900008A233A60336005B0F0BD0C460649074A69
:105910000968496B002908BF11462246D1F8E040CA
:1059200001A9A047E9E700BF140040205408402027
:1059300021B1FF2A04D80A70012070470846704739
:105940008A2303604FF0FF30704700BF70B50D46EB
:10595000084C114606461A46284600232360FAF7EB
:10596000A5FC431C00D070BD2368002BFBD0336026
:1059700070BD00BF4C0C40202DE9F8432C4D06466D
:10598000286898460F469146FFF71EFC294B1C6875
:10599000D4F84831002B3ED05A681F2A1CDC02F193
:1059A000010E76B103EB82010124C1F88890D3F88F
:1059B000880194402043022EC3F88801C1F8088171
:1059C00023D00232C3F804E0286843F82270FFF7BE
:1059D000FDFB0020BDE8F883174B0BB34FF4C870F4
:1059E000FDF7F4FA0346D8B1D4F84821026000214B
:1059F00041600A46C4F848014FF0010EC0F8881112
:105A0000C0F88C11002EDCD0CCE7D3F88C110C43FD
:105A1000C3F88C41D5E704F5A673C4F84831BBE759
:105A20002868FFF7D3FB4FF0FF30BDE8F88300BFD5
:105A300050084020B85F4000CD2F400038B5074CDB
:105A40000023054608462360FBF74AF9431C00D0B3
:105A500038BD2368002BFBD02B6038BD4C0C402098
:105A600070B559B105460C4610B1836B002B3CD084
:105A7000636ED80705D5B4F90C302BB90026304633
:105A800070BDA38999053CD521462846FEF7E4FE62
:105A9000E36A064633B1E169284698470028B8BF53
:105AA0004FF0FF36A3891A0622D4216B41B104F1CD
:105AB0004003994202D02846FFF7ECF80023236305
:105AC000616C21B12846FFF7E5F800236364FEF717
:105AD000E7FF636E0022DB07A2810ED5A06DFFF702
